{
  "contractName": "User",
  "abi": [
    {
      "constant": true,
      "inputs": [
        {
          "name": "",
          "type": "uint256"
        }
      ],
      "name": "userAddresses",
      "outputs": [
        {
          "name": "",
          "type": "address"
        }
      ],
      "payable": false,
      "stateMutability": "view",
      "type": "function"
    },
    {
      "constant": true,
      "inputs": [
        {
          "name": "_userAddress",
          "type": "address"
        }
      ],
      "name": "isExistAddress",
      "outputs": [
        {
          "name": "isExist",
          "type": "bool"
        }
      ],
      "payable": false,
      "stateMutability": "view",
      "type": "function"
    },
    {
      "constant": true,
      "inputs": [
        {
          "name": "_userName",
          "type": "string"
        }
      ],
      "name": "isExistName",
      "outputs": [
        {
          "name": "isExist",
          "type": "bool"
        }
      ],
      "payable": false,
      "stateMutability": "view",
      "type": "function"
    },
    {
      "constant": true,
      "inputs": [
        {
          "name": "_userName",
          "type": "string"
        }
      ],
      "name": "findAddressByName",
      "outputs": [
        {
          "name": "userAddress",
          "type": "address"
        }
      ],
      "payable": false,
      "stateMutability": "view",
      "type": "function"
    },
    {
      "constant": false,
      "inputs": [
        {
          "name": "_userAddress",
          "type": "address"
        },
        {
          "name": "_userName",
          "type": "string"
        }
      ],
      "name": "createUser",
      "outputs": [
        {
          "name": "index",
          "type": "uint256"
        }
      ],
      "payable": false,
      "stateMutability": "nonpayable",
      "type": "function"
    },
    {
      "constant": true,
      "inputs": [
        {
          "name": "_userAddress",
          "type": "address"
        }
      ],
      "name": "findUser",
      "outputs": [
        {
          "name": "userAddress",
          "type": "address"
        },
        {
          "name": "userName",
          "type": "string"
        },
        {
          "name": "index",
          "type": "uint256"
        }
      ],
      "payable": false,
      "stateMutability": "view",
      "type": "function"
    }
  ],
  "bytecode": "0x608060405234801561001057600080fd5b50610cbd806100206000396000f3fe608060405260043610610072576000357c010000000000000000000000000000000000000000000000000000000090048063502c9bd5146100775780637d024086146100f2578063cfdd3d8e146101fa578063df9d9024146102da578063effade41146103de578063f9bcd54514610447575b600080fd5b34801561008357600080fd5b506100b06004803603602081101561009a57600080fd5b8101908080359060200190929190505050610543565b604051808273ffffffffffffffffffffffffffffffffffffffff1673ffffffffffffffffffffffffffffffffffffffff16815260200191505060405180910390f35b3480156100fe57600080fd5b506101b86004803603602081101561011557600080fd5b810190808035906020019064010000000081111561013257600080fd5b82018360208201111561014457600080fd5b8035906020019184600183028401116401000000008311171561016657600080fd5b91908080601f016020809104026020016040519081016040528093929190818152602001838380828437600081840152601f19601f820116905080830192505050505050509192919290505050610581565b604051808273ffffffffffffffffffffffffffffffffffffffff1673ffffffffffffffffffffffffffffffffffffffff16815260200191505060405180910390f35b34801561020657600080fd5b506102c06004803603602081101561021d57600080fd5b810190808035906020019064010000000081111561023a57600080fd5b82018360208201111561024c57600080fd5b8035906020019184600183028401116401000000008311171561026e57600080fd5b91908080601f016020809104026020016040519081016040528093929190818152602001838380828437600081840152601f19601f82011690508083019250505050505050919291929050505061062d565b604051808215151515815260200191505060405180910390f35b3480156102e657600080fd5b50610329600480360360208110156102fd57600080fd5b81019080803573ffffffffffffffffffffffffffffffffffffffff16906020019092919050505061064f565b604051808473ffffffffffffffffffffffffffffffffffffffff1673ffffffffffffffffffffffffffffffffffffffff16815260200180602001838152602001828103825284818151815260200191508051906020019080838360005b838110156103a1578082015181840152602081019050610386565b50505050905090810190601f1680156103ce5780820380516001836020036101000a031916815260200191505b5094505050505060405180910390f35b3480156103ea57600080fd5b5061042d6004803603602081101561040157600080fd5b81019080803573ffffffffffffffffffffffffffffffffffffffff1690602001909291905050506107fa565b604051808215151515815260200191505060405180910390f35b34801561045357600080fd5b5061052d6004803603604081101561046a57600080fd5b81019080803573ffffffffffffffffffffffffffffffffffffffff169060200190929190803590602001906401000000008111156104a757600080fd5b8201836020820111156104b957600080fd5b803590602001918460018302840111640100000000831117156104db57600080fd5b91908080601f016020809104026020016040519081016040528093929190818152602001838380828437600081840152601f19601f8201169050808301925050505050505091929192905050506108c4565b6040518082815260200191505060405180910390f35b60008181548110151561055257fe5b906000526020600020016000915054906101000a900473ffffffffffffffffffffffffffffffffffffffff1681565b600061058c8261062d565b151561059757600080fd5b6003826040518082805190602001908083835b6020831015156105cf57805182526020820191506020810190506020830392506105aa565b6001836020036101000a038019825116818451168082178552505050505050905001915050908152602001604051809103902060000160009054906101000a900473ffffffffffffffffffffffffffffffffffffffff169050919050565b6000806001805490501415610645576000905061064a565b600190505b919050565b60006060600061065e846107fa565b151561066957600080fd5b600260008573ffffffffffffffffffffffffffffffffffffffff1673ffffffffffffffffffffffffffffffffffffffff16815260200190815260200160002060000160009054906101000a900473ffffffffffffffffffffffffffffffffffffffff16600260008673ffffffffffffffffffffffffffffffffffffffff1673ffffffffffffffffffffffffffffffffffffffff168152602001908152602001600020600101600260008773ffffffffffffffffffffffffffffffffffffffff1673ffffffffffffffffffffffffffffffffffffffff16815260200190815260200160002060020154818054600181600116156101000203166002900480601f0160208091040260200160405190810160405280929190818152602001828054600181600116156101000203166002900480156107e65780601f106107bb576101008083540402835291602001916107e6565b820191906000526020600020905b8154815290600101906020018083116107c957829003601f168201915b505050505091509250925092509193909250565b600080600080549050141561081257600090506108bf565b8173ffffffffffffffffffffffffffffffffffffffff166000600260008573ffffffffffffffffffffffffffffffffffffffff1673ffffffffffffffffffffffffffffffffffffffff1681526020019081526020016000206002015481548110151561087a57fe5b9060005260206000200160009054906101000a900473ffffffffffffffffffffffffffffffffffffffff1673ffffffffffffffffffffffffffffffffffffffff161490505b919050565b60006108cf836107fa565b1515156108db57600080fd5b60008390806001815401808255809150509060018203906000526020600020016000909192909190916101000a81548173ffffffffffffffffffffffffffffffffffffffff021916908373ffffffffffffffffffffffffffffffffffffffff160217905550506060604051908101604052808473ffffffffffffffffffffffffffffffffffffffff168152602001838152602001600160008054905003815250600260008573ffffffffffffffffffffffffffffffffffffffff1673ffffffffffffffffffffffffffffffffffffffff16815260200190815260200160002060008201518160000160006101000a81548173ffffffffffffffffffffffffffffffffffffffff021916908373ffffffffffffffffffffffffffffffffffffffff1602179055506020820151816001019080519060200190610a1d929190610b6c565b50604082015181600201559050506001829080600181540180825580915050906001820390600052602060002001600090919290919091509080519060200190610a68929190610bec565b505060408051908101604052808473ffffffffffffffffffffffffffffffffffffffff16815260200160018080549050038152506003836040518082805190602001908083835b602083101515610ad45780518252602082019150602081019050602083039250610aaf565b6001836020036101000a038019825116818451168082178552505050505050905001915050908152602001604051809103902060008201518160000160006101000a81548173ffffffffffffffffffffffffffffffffffffffff021916908373ffffffffffffffffffffffffffffffffffffffff16021790555060208201518160010155905050600160008054905003905092915050565b828054600181600116156101000203166002900490600052602060002090601f016020900481019282601f10610bad57805160ff1916838001178555610bdb565b82800160010185558215610bdb579182015b82811115610bda578251825591602001919060010190610bbf565b5b509050610be89190610c6c565b5090565b828054600181600116156101000203166002900490600052602060002090601f016020900481019282601f10610c2d57805160ff1916838001178555610c5b565b82800160010185558215610c5b579182015b82811115610c5a578251825591602001919060010190610c3f565b5b509050610c689190610c6c565b5090565b610c8e91905b80821115610c8a576000816000905550600101610c72565b5090565b9056fea165627a7a72305820dc82601fd250f63dff571e24296e22da9db7a229f20209295eedb8294bbd0eca0029",
  "source": "pragma solidity ^0.5.0;\ncontract User {\n\t// 用户信息\n\tstruct UserStruct {\n\t\taddress userAddress;\n\t\tstring userName;\n\t\tuint index; // 索引，用于快速检索\n\t}\n\n\t// 用户列表\n\tstruct UserListStruct {\n\t\taddress userAddress;\n\t\tuint index;\n\t}\n\n\taddress[] public userAddresses;\n\tstring[] private userNames;\n\n\tmapping(address => UserStruct) private add2User;\n\tmapping(string => UserListStruct) private name2UserList;\n\n\t// 查询用户是否合法\n\tfunction isExistAddress(address _userAddress) public view returns(bool isExist) {\n\t\tif (userAddresses.length == 0) return false; // 系统还没有用户时返回false\n\t\treturn (userAddresses[add2User[_userAddress].index] == _userAddress);\n\t}\n\tfunction isExistName(string memory _userName) public view returns(bool isExist) {\n\t\tif (userNames.length == 0) return false;\n\t\t//string memory tmp = userNames[name2UserList[_userName].index];\n\t\treturn (true);\n\t}\n\n\t// 获取用户地址\n\tfunction findAddressByName(string memory _userName) public view returns (address userAddress) {\n\t\trequire (isExistName(_userName));\n\t\treturn name2UserList[_userName].userAddress;\n\t}\n\n\t// 创建用户信息\n\tfunction createUser(address _userAddress, string memory _userName) public returns (uint index) {\n\t\trequire(!isExistAddress(_userAddress)); // 避免重复创建\n\t\tuserAddresses.push(_userAddress);\n\t\tadd2User[_userAddress] = UserStruct(_userAddress, _userName, userAddresses.length - 1);\n\t\tuserNames.push(_userName);\n\t\tname2UserList[_userName] = UserListStruct(_userAddress, userNames.length - 1);\n\t\treturn userAddresses.length - 1;\n\t}\n\n\t// 获取用户信息\n\tfunction findUser(address _userAddress) public view returns (address userAddress, string memory userName, uint index) {\n\t\trequire(isExistAddress(_userAddress));\n\t\treturn (add2User[_userAddress].userAddress,\n\t\t\t\tadd2User[_userAddress].userName,\n\t\t\t\tadd2User[_userAddress].index);\n\t}\n}",
  "sourcePath": "/Users/Huyizhen/Desktop/solidity-adoption/contracts/User.sol",
  "compiler": {
    "name": "solc",
    "version": "0.5.1+commit.c8a2cb62.Linux.g++"
  },
  "schemaVersion": "3.0.23",
  "updatedAt": "2020-03-28T18:21:00.260Z",
  "networkType": "ethereum",
  "devdoc": {
    "methods": {}
  },
  "userdoc": {
    "methods": {}
  }
}